{
  "_format": "hh-sol-artifact-1",
  "contractName": "miner",
  "sourceName": "contracts/SCAC.sol",
  "abi": [
    {
      "inputs": [],
      "stateMutability": "nonpayable",
      "type": "constructor"
    },
    {
      "anonymous": false,
      "inputs": [
        {
          "indexed": true,
          "internalType": "address",
          "name": "previousOwner",
          "type": "address"
        },
        {
          "indexed": true,
          "internalType": "address",
          "name": "newOwner",
          "type": "address"
        }
      ],
      "name": "OwnershipTransferred",
      "type": "event"
    },
    {
      "inputs": [],
      "name": "mine",
      "outputs": [],
      "stateMutability": "nonpayable",
      "type": "function"
    },
    {
      "inputs": [],
      "name": "miner",
      "outputs": [
        {
          "internalType": "address",
          "name": "",
          "type": "address"
        }
      ],
      "stateMutability": "view",
      "type": "function"
    },
    {
      "inputs": [],
      "name": "owner",
      "outputs": [
        {
          "internalType": "address",
          "name": "",
          "type": "address"
        }
      ],
      "stateMutability": "view",
      "type": "function"
    },
    {
      "inputs": [],
      "name": "renounceOwnership",
      "outputs": [],
      "stateMutability": "nonpayable",
      "type": "function"
    },
    {
      "inputs": [
        {
          "internalType": "address",
          "name": "newOwner",
          "type": "address"
        }
      ],
      "name": "transferOwnership",
      "outputs": [],
      "stateMutability": "nonpayable",
      "type": "function"
    }
  ],
  "bytecode": "0x608060405234801561001057600080fd5b5061002d61002261008660201b60201c565b61008e60201b60201c565b600061003d61008660201b60201c565b905080600160006101000a81548173ffffffffffffffffffffffffffffffffffffffff021916908373ffffffffffffffffffffffffffffffffffffffff16021790555050610152565b600033905090565b60008060009054906101000a900473ffffffffffffffffffffffffffffffffffffffff169050816000806101000a81548173ffffffffffffffffffffffffffffffffffffffff021916908373ffffffffffffffffffffffffffffffffffffffff1602179055508173ffffffffffffffffffffffffffffffffffffffff168173ffffffffffffffffffffffffffffffffffffffff167f8be0079c531659141344cd1fd0a4f28419497f9722a3daafe3b4186f6b6457e060405160405180910390a35050565b610568806101616000396000f3fe608060405234801561001057600080fd5b50600436106100575760003560e01c8063349dc3291461005c578063715018a61461007a5780638da5cb5b1461008457806399f4b251146100a2578063f2fde38b146100ac575b600080fd5b6100646100c8565b60405161007191906103aa565b60405180910390f35b6100826100f2565b005b61008c61017a565b60405161009991906103aa565b60405180910390f35b6100aa6101a3565b005b6100c660048036038101906100c191906103f6565b6101a5565b005b6000600160009054906101000a900473ffffffffffffffffffffffffffffffffffffffff16905090565b6100fa61029d565b73ffffffffffffffffffffffffffffffffffffffff1661011861017a565b73ffffffffffffffffffffffffffffffffffffffff161461016e576040517f08c379a000000000000000000000000000000000000000000000000000000000815260040161016590610480565b60405180910390fd5b61017860006102a5565b565b60008060009054906101000a900473ffffffffffffffffffffffffffffffffffffffff16905090565b565b6101ad61029d565b73ffffffffffffffffffffffffffffffffffffffff166101cb61017a565b73ffffffffffffffffffffffffffffffffffffffff1614610221576040517f08c379a000000000000000000000000000000000000000000000000000000000815260040161021890610480565b60405180910390fd5b600073ffffffffffffffffffffffffffffffffffffffff168173ffffffffffffffffffffffffffffffffffffffff161415610291576040517f08c379a000000000000000000000000000000000000000000000000000000000815260040161028890610512565b60405180910390fd5b61029a816102a5565b50565b600033905090565b60008060009054906101000a900473ffffffffffffffffffffffffffffffffffffffff169050816000806101000a81548173ffffffffffffffffffffffffffffffffffffffff021916908373ffffffffffffffffffffffffffffffffffffffff1602179055508173ffffffffffffffffffffffffffffffffffffffff168173ffffffffffffffffffffffffffffffffffffffff167f8be0079c531659141344cd1fd0a4f28419497f9722a3daafe3b4186f6b6457e060405160405180910390a35050565b600073ffffffffffffffffffffffffffffffffffffffff82169050919050565b600061039482610369565b9050919050565b6103a481610389565b82525050565b60006020820190506103bf600083018461039b565b92915050565b600080fd5b6103d381610389565b81146103de57600080fd5b50565b6000813590506103f0816103ca565b92915050565b60006020828403121561040c5761040b6103c5565b5b600061041a848285016103e1565b91505092915050565b600082825260208201905092915050565b7f4f776e61626c653a2063616c6c6572206973206e6f7420746865206f776e6572600082015250565b600061046a602083610423565b915061047582610434565b602082019050919050565b600060208201905081810360008301526104998161045d565b9050919050565b7f4f776e61626c653a206e6577206f776e657220697320746865207a65726f206160008201527f6464726573730000000000000000000000000000000000000000000000000000602082015250565b60006104fc602683610423565b9150610507826104a0565b604082019050919050565b6000602082019050818103600083015261052b816104ef565b905091905056fea26469706673582212208fbd1fe580b768872feb6c8f16e13b9286459635f2df409afd433a193f516cd064736f6c634300080a0033",
  "linkReferences": {},
  "deployedLinkReferences": {}
}