{
  "_format": "hh-sol-artifact-1",
  "contractName": "PoolInfo",
  "sourceName": "contracts/SCAC.sol",
  "abi": [
    {
      "inputs": [],
      "stateMutability": "nonpayable",
      "type": "constructor"
    },
    {
      "anonymous": false,
      "inputs": [
        {
          "indexed": true,
          "internalType": "address",
          "name": "previousOwner",
          "type": "address"
        },
        {
          "indexed": true,
          "internalType": "address",
          "name": "newOwner",
          "type": "address"
        }
      ],
      "name": "OwnershipTransferred",
      "type": "event"
    },
    {
      "anonymous": false,
      "inputs": [
        {
          "indexed": true,
          "internalType": "string",
          "name": "sourceName",
          "type": "string"
        },
        {
          "indexed": true,
          "internalType": "address",
          "name": "_pool",
          "type": "address"
        }
      ],
      "name": "PoolAdded",
      "type": "event"
    },
    {
      "anonymous": false,
      "inputs": [
        {
          "indexed": true,
          "internalType": "string",
          "name": "sourceName",
          "type": "string"
        },
        {
          "indexed": true,
          "internalType": "address",
          "name": "_pool",
          "type": "address"
        }
      ],
      "name": "PoolRemoved",
      "type": "event"
    },
    {
      "anonymous": false,
      "inputs": [
        {
          "indexed": true,
          "internalType": "string",
          "name": "sourceName",
          "type": "string"
        },
        {
          "indexed": true,
          "internalType": "address",
          "name": "_router",
          "type": "address"
        }
      ],
      "name": "RouterAdded",
      "type": "event"
    },
    {
      "anonymous": false,
      "inputs": [
        {
          "indexed": true,
          "internalType": "string",
          "name": "sourceName",
          "type": "string"
        },
        {
          "indexed": true,
          "internalType": "address",
          "name": "_router",
          "type": "address"
        }
      ],
      "name": "RouterRemoved",
      "type": "event"
    },
    {
      "inputs": [],
      "name": "ADDRESS_ZERO",
      "outputs": [
        {
          "internalType": "string",
          "name": "",
          "type": "string"
        }
      ],
      "stateMutability": "view",
      "type": "function"
    },
    {
      "inputs": [
        {
          "internalType": "string",
          "name": "poolSource",
          "type": "string"
        },
        {
          "internalType": "address",
          "name": "pool",
          "type": "address"
        }
      ],
      "name": "addToPools",
      "outputs": [
        {
          "internalType": "bool",
          "name": "success",
          "type": "bool"
        }
      ],
      "stateMutability": "nonpayable",
      "type": "function"
    },
    {
      "inputs": [
        {
          "internalType": "string",
          "name": "routerSource",
          "type": "string"
        },
        {
          "internalType": "address",
          "name": "router",
          "type": "address"
        }
      ],
      "name": "addToRouters",
      "outputs": [],
      "stateMutability": "nonpayable",
      "type": "function"
    },
    {
      "inputs": [
        {
          "internalType": "bool",
          "name": "poolOrRouter",
          "type": "bool"
        },
        {
          "internalType": "string",
          "name": "name",
          "type": "string"
        },
        {
          "internalType": "address",
          "name": "source",
          "type": "address"
        }
      ],
      "name": "deleteMapIndex",
      "outputs": [],
      "stateMutability": "nonpayable",
      "type": "function"
    },
    {
      "inputs": [
        {
          "internalType": "string",
          "name": "_this",
          "type": "string"
        }
      ],
      "name": "keccakThis",
      "outputs": [
        {
          "internalType": "bytes32",
          "name": "",
          "type": "bytes32"
        }
      ],
      "stateMutability": "pure",
      "type": "function"
    },
    {
      "inputs": [],
      "name": "owner",
      "outputs": [
        {
          "internalType": "address",
          "name": "",
          "type": "address"
        }
      ],
      "stateMutability": "view",
      "type": "function"
    },
    {
      "inputs": [
        {
          "internalType": "address",
          "name": "pool",
          "type": "address"
        }
      ],
      "name": "poolExists",
      "outputs": [
        {
          "internalType": "string",
          "name": "source",
          "type": "string"
        }
      ],
      "stateMutability": "view",
      "type": "function"
    },
    {
      "inputs": [
        {
          "internalType": "address",
          "name": "pool",
          "type": "address"
        }
      ],
      "name": "poolExistsByAddress",
      "outputs": [
        {
          "internalType": "bool",
          "name": "exists",
          "type": "bool"
        }
      ],
      "stateMutability": "view",
      "type": "function"
    },
    {
      "inputs": [
        {
          "internalType": "address",
          "name": "",
          "type": "address"
        }
      ],
      "name": "poolsByAddress",
      "outputs": [
        {
          "internalType": "string",
          "name": "",
          "type": "string"
        }
      ],
      "stateMutability": "view",
      "type": "function"
    },
    {
      "inputs": [
        {
          "internalType": "string",
          "name": "",
          "type": "string"
        }
      ],
      "name": "poolsByName",
      "outputs": [
        {
          "internalType": "address",
          "name": "",
          "type": "address"
        }
      ],
      "stateMutability": "view",
      "type": "function"
    },
    {
      "inputs": [],
      "name": "renounceOwnership",
      "outputs": [],
      "stateMutability": "nonpayable",
      "type": "function"
    },
    {
      "inputs": [
        {
          "internalType": "address",
          "name": "router",
          "type": "address"
        }
      ],
      "name": "routerExists",
      "outputs": [
        {
          "internalType": "string",
          "name": "source",
          "type": "string"
        }
      ],
      "stateMutability": "view",
      "type": "function"
    },
    {
      "inputs": [
        {
          "internalType": "address",
          "name": "router",
          "type": "address"
        }
      ],
      "name": "routerExistsByAddress",
      "outputs": [
        {
          "internalType": "bool",
          "name": "exists",
          "type": "bool"
        }
      ],
      "stateMutability": "view",
      "type": "function"
    },
    {
      "inputs": [
        {
          "internalType": "address",
          "name": "",
          "type": "address"
        }
      ],
      "name": "routersByAddress",
      "outputs": [
        {
          "internalType": "string",
          "name": "",
          "type": "string"
        }
      ],
      "stateMutability": "view",
      "type": "function"
    },
    {
      "inputs": [
        {
          "internalType": "string",
          "name": "",
          "type": "string"
        }
      ],
      "name": "routersByName",
      "outputs": [
        {
          "internalType": "address",
          "name": "",
          "type": "address"
        }
      ],
      "stateMutability": "view",
      "type": "function"
    },
    {
      "inputs": [
        {
          "internalType": "address",
          "name": "newOwner",
          "type": "address"
        }
      ],
      "name": "transferOwnership",
      "outputs": [],
      "stateMutability": "nonpayable",
      "type": "function"
    },
    {
      "inputs": [],
      "name": "zero",
      "outputs": [
        {
          "internalType": "address",
          "name": "",
          "type": "address"
        }
      ],
      "stateMutability": "view",
      "type": "function"
    }
  ],
  "bytecode": "0x60a060405260006005556000600655600073ffffffffffffffffffffffffffffffffffffffff1660809073ffffffffffffffffffffffffffffffffffffffff168152506040518060600160405280602a815260200162001e9c602a9139600790805190602001906200007392919062000174565b503480156200008157600080fd5b50620000a262000096620000a860201b60201c565b620000b060201b60201c565b62000289565b600033905090565b60008060009054906101000a900473ffffffffffffffffffffffffffffffffffffffff169050816000806101000a81548173ffffffffffffffffffffffffffffffffffffffff021916908373ffffffffffffffffffffffffffffffffffffffff1602179055508173ffffffffffffffffffffffffffffffffffffffff168173ffffffffffffffffffffffffffffffffffffffff167f8be0079c531659141344cd1fd0a4f28419497f9722a3daafe3b4186f6b6457e060405160405180910390a35050565b828054620001829062000253565b90600052602060002090601f016020900481019282620001a65760008555620001f2565b82601f10620001c157805160ff1916838001178555620001f2565b82800160010185558215620001f2579182015b82811115620001f1578251825591602001919060010190620001d4565b5b50905062000201919062000205565b5090565b5b808211156200022057600081600090555060010162000206565b5090565b7f4e487b7100000000000000000000000000000000000000000000000000000000600052602260045260246000fd5b600060028204905060018216806200026c57607f821691505b6020821081141562000283576200028262000224565b5b50919050565b608051611bf7620002a56000396000610dff0152611bf76000f3fe608060405234801561001057600080fd5b506004361061010b5760003560e01c8063715018a6116100a2578063bc1b392d11610071578063bc1b392d146102de578063c8670120146102fc578063ece830f21461032c578063f2fde38b1461035c578063fa5072cb146103785761010b565b8063715018a61461025657806378218229146102605780638da5cb5b1461029057806396081f05146102ae5761010b565b8063465fd68f116100de578063465fd68f146101bc5780636658a9d9146101d857806366e79509146102085780636b94b47d146102265761010b565b8063035f7d1c146101105780631e1c6a071461014057806335d254141461017057806339448e0c146101a0575b600080fd5b61012a600480360381019061012591906114df565b6103a8565b6040516101379190611569565b60405180910390f35b61015a600480360381019061015591906115b0565b6103f1565b6040516101679190611665565b60405180910390f35b61018a600480360381019061018591906115b0565b6104c2565b6040516101979190611665565b60405180910390f35b6101ba60048036038101906101b5919061171f565b610593565b005b6101d660048036038101906101d19190611793565b610772565b005b6101f260048036038101906101ed91906115b0565b61096c565b6040516101ff9190611665565b60405180910390f35b610210610a0c565b60405161021d9190611665565b60405180910390f35b610240600480360381019061023b91906115b0565b610a9a565b60405161024d9190611802565b60405180910390f35b61025e610ba3565b005b61027a600480360381019061027591906115b0565b610c2b565b6040516102879190611802565b60405180910390f35b610298610d34565b6040516102a59190611569565b60405180910390f35b6102c860048036038101906102c391906115b0565b610d5d565b6040516102d59190611665565b60405180910390f35b6102e6610dfd565b6040516102f39190611569565b60405180910390f35b6103166004803603810190610311919061181d565b610e21565b6040516103239190611802565b60405180910390f35b610346600480360381019061034191906114df565b61101f565b6040516103539190611892565b60405180910390f35b610376600480360381019061037191906115b0565b61104f565b005b610392600480360381019061038d91906114df565b611147565b60405161039f9190611569565b60405180910390f35b6002818051602081018201805184825260208301602085012081835280955050505050506000915054906101000a900473ffffffffffffffffffffffffffffffffffffffff1681565b6060600360008373ffffffffffffffffffffffffffffffffffffffff1673ffffffffffffffffffffffffffffffffffffffff168152602001908152602001600020805461043d906118dc565b80601f0160208091040260200160405190810160405280929190818152602001828054610469906118dc565b80156104b65780601f1061048b576101008083540402835291602001916104b6565b820191906000526020600020905b81548152906001019060200180831161049957829003601f168201915b50505050509050919050565b6060600460008373ffffffffffffffffffffffffffffffffffffffff1673ffffffffffffffffffffffffffffffffffffffff168152602001908152602001600020805461050e906118dc565b80601f016020809104026020016040519081016040528092919081815260200182805461053a906118dc565b80156105875780601f1061055c57610100808354040283529160200191610587565b820191906000526020600020905b81548152906001019060200180831161056a57829003601f168201915b50505050509050919050565b61059b611190565b73ffffffffffffffffffffffffffffffffffffffff166105b9610d34565b73ffffffffffffffffffffffffffffffffffffffff161461060f576040517f08c379a00000000000000000000000000000000000000000000000000000000081526004016106069061195a565b60405180910390fd5b6001151584151514156106bf576001838360405161062e9291906119aa565b908152602001604051809103902060006101000a81549073ffffffffffffffffffffffffffffffffffffffff02191690558073ffffffffffffffffffffffffffffffffffffffff1683836040516106869291906119aa565b60405180910390207fb3c3f56f036aa723a92ff7811b5f67900aa99bab7fadc26f38dde765531e20bd60405160405180910390a361076c565b60001515841515141561076b57600283836040516106de9291906119aa565b908152602001604051809103902060006101000a81549073ffffffffffffffffffffffffffffffffffffffff02191690558073ffffffffffffffffffffffffffffffffffffffff1683836040516107369291906119aa565b60405180910390207fb3c3f56f036aa723a92ff7811b5f67900aa99bab7fadc26f38dde765531e20bd60405160405180910390a35b5b50505050565b61077a611190565b73ffffffffffffffffffffffffffffffffffffffff16610798610d34565b73ffffffffffffffffffffffffffffffffffffffff16146107ee576040517f08c379a00000000000000000000000000000000000000000000000000000000081526004016107e59061195a565b60405180910390fd5b600073ffffffffffffffffffffffffffffffffffffffff168173ffffffffffffffffffffffffffffffffffffffff16141561085e576040517f08c379a000000000000000000000000000000000000000000000000000000000815260040161085590611a35565b60405180910390fd5b80600284846040516108719291906119aa565b908152602001604051809103902060006101000a81548173ffffffffffffffffffffffffffffffffffffffff021916908373ffffffffffffffffffffffffffffffffffffffff1602179055508282600460008473ffffffffffffffffffffffffffffffffffffffff1673ffffffffffffffffffffffffffffffffffffffff168152602001908152602001600020919061090b92919061125c565b508073ffffffffffffffffffffffffffffffffffffffff1683836040516109339291906119aa565b60405180910390207ff1de8525e8449af0de96ab21735341331b5d5254af583acbe00088058b7cd73960405160405180910390a3505050565b6003602052806000526040600020600091509050805461098b906118dc565b80601f01602080910402602001604051908101604052809291908181526020018280546109b7906118dc565b8015610a045780601f106109d957610100808354040283529160200191610a04565b820191906000526020600020905b8154815290600101906020018083116109e757829003601f168201915b505050505081565b60078054610a19906118dc565b80601f0160208091040260200160405190810160405280929190818152602001828054610a45906118dc565b8015610a925780601f10610a6757610100808354040283529160200191610a92565b820191906000526020600020905b815481529060010190602001808311610a7557829003601f168201915b505050505081565b600080600360008473ffffffffffffffffffffffffffffffffffffffff1673ffffffffffffffffffffffffffffffffffffffff1681526020019081526020016000208054610ae7906118dc565b80601f0160208091040260200160405190810160405280929190818152602001828054610b13906118dc565b8015610b605780601f10610b3557610100808354040283529160200191610b60565b820191906000526020600020905b815481529060010190602001808311610b4357829003601f168201915b50505050509050610b7f6040518060200160405280600081525061101f565b610b888261101f565b1415610b98576000915050610b9e565b60019150505b919050565b610bab611190565b73ffffffffffffffffffffffffffffffffffffffff16610bc9610d34565b73ffffffffffffffffffffffffffffffffffffffff1614610c1f576040517f08c379a0000000000000000000000000000000000000000000000000000000008152600401610c169061195a565b60405180910390fd5b610c296000611198565b565b600080600460008473ffffffffffffffffffffffffffffffffffffffff1673ffffffffffffffffffffffffffffffffffffffff1681526020019081526020016000208054610c78906118dc565b80601f0160208091040260200160405190810160405280929190818152602001828054610ca4906118dc565b8015610cf15780601f10610cc657610100808354040283529160200191610cf1565b820191906000526020600020905b815481529060010190602001808311610cd457829003601f168201915b50505050509050610d106040518060200160405280600081525061101f565b610d198261101f565b1415610d29576000915050610d2f565b60019150505b919050565b60008060009054906101000a900473ffffffffffffffffffffffffffffffffffffffff16905090565b60046020528060005260406000206000915090508054610d7c906118dc565b80601f0160208091040260200160405190810160405280929190818152602001828054610da8906118dc565b8015610df55780601f10610dca57610100808354040283529160200191610df5565b820191906000526020600020905b815481529060010190602001808311610dd857829003601f168201915b505050505081565b7f000000000000000000000000000000000000000000000000000000000000000081565b6000610e2b611190565b73ffffffffffffffffffffffffffffffffffffffff16610e49610d34565b73ffffffffffffffffffffffffffffffffffffffff1614610e9f576040517f08c379a0000000000000000000000000000000000000000000000000000000008152600401610e969061195a565b60405180910390fd5b600073ffffffffffffffffffffffffffffffffffffffff168273ffffffffffffffffffffffffffffffffffffffff161415610f0f576040517f08c379a0000000000000000000000000000000000000000000000000000000008152600401610f0690611ac7565b60405180910390fd5b81600184604051610f209190611b18565b908152602001604051809103902060006101000a81548173ffffffffffffffffffffffffffffffffffffffff021916908373ffffffffffffffffffffffffffffffffffffffff16021790555082600360008473ffffffffffffffffffffffffffffffffffffffff1673ffffffffffffffffffffffffffffffffffffffff1681526020019081526020016000209080519060200190610fbf9291906112e2565b508173ffffffffffffffffffffffffffffffffffffffff1683604051610fe59190611b18565b60405180910390207f9fc832451def12b9be6bbcb29abfd2ac19235d11bda120811e38a70e922fb4e560405160405180910390a392915050565b6000816040516020016110329190611665565b604051602081830303815290604052805190602001209050919050565b611057611190565b73ffffffffffffffffffffffffffffffffffffffff16611075610d34565b73ffffffffffffffffffffffffffffffffffffffff16146110cb576040517f08c379a00000000000000000000000000000000000000000000000000000000081526004016110c29061195a565b60405180910390fd5b600073ffffffffffffffffffffffffffffffffffffffff168173ffffffffffffffffffffffffffffffffffffffff16141561113b576040517f08c379a000000000000000000000000000000000000000000000000000000000815260040161113290611ba1565b60405180910390fd5b61114481611198565b50565b6001818051602081018201805184825260208301602085012081835280955050505050506000915054906101000a900473ffffffffffffffffffffffffffffffffffffffff1681565b600033905090565b60008060009054906101000a900473ffffffffffffffffffffffffffffffffffffffff169050816000806101000a81548173ffffffffffffffffffffffffffffffffffffffff021916908373ffffffffffffffffffffffffffffffffffffffff1602179055508173ffffffffffffffffffffffffffffffffffffffff168173ffffffffffffffffffffffffffffffffffffffff167f8be0079c531659141344cd1fd0a4f28419497f9722a3daafe3b4186f6b6457e060405160405180910390a35050565b828054611268906118dc565b90600052602060002090601f01602090048101928261128a57600085556112d1565b82601f106112a357803560ff19168380011785556112d1565b828001600101855582156112d1579182015b828111156112d05782358255916020019190600101906112b5565b5b5090506112de9190611368565b5090565b8280546112ee906118dc565b90600052602060002090601f0160209004810192826113105760008555611357565b82601f1061132957805160ff1916838001178555611357565b82800160010185558215611357579182015b8281111561135657825182559160200191906001019061133b565b5b5090506113649190611368565b5090565b5b80821115611381576000816000905550600101611369565b5090565b6000604051905090565b600080fd5b600080fd5b600080fd5b600080fd5b6000601f19601f8301169050919050565b7f4e487b7100000000000000000000000000000000000000000000000000000000600052604160045260246000fd5b6113ec826113a3565b810181811067ffffffffffffffff8211171561140b5761140a6113b4565b5b80604052505050565b600061141e611385565b905061142a82826113e3565b919050565b600067ffffffffffffffff82111561144a576114496113b4565b5b611453826113a3565b9050602081019050919050565b82818337600083830152505050565b600061148261147d8461142f565b611414565b90508281526020810184848401111561149e5761149d61139e565b5b6114a9848285611460565b509392505050565b600082601f8301126114c6576114c5611399565b5b81356114d684826020860161146f565b91505092915050565b6000602082840312156114f5576114f461138f565b5b600082013567ffffffffffffffff81111561151357611512611394565b5b61151f848285016114b1565b91505092915050565b600073ffffffffffffffffffffffffffffffffffffffff82169050919050565b600061155382611528565b9050919050565b61156381611548565b82525050565b600060208201905061157e600083018461155a565b92915050565b61158d81611548565b811461159857600080fd5b50565b6000813590506115aa81611584565b92915050565b6000602082840312156115c6576115c561138f565b5b60006115d48482850161159b565b91505092915050565b600081519050919050565b600082825260208201905092915050565b60005b838110156116175780820151818401526020810190506115fc565b83811115611626576000848401525b50505050565b6000611637826115dd565b61164181856115e8565b93506116518185602086016115f9565b61165a816113a3565b840191505092915050565b6000602082019050818103600083015261167f818461162c565b905092915050565b60008115159050919050565b61169c81611687565b81146116a757600080fd5b50565b6000813590506116b981611693565b92915050565b600080fd5b600080fd5b60008083601f8401126116df576116de611399565b5b8235905067ffffffffffffffff8111156116fc576116fb6116bf565b5b602083019150836001820283011115611718576117176116c4565b5b9250929050565b600080600080606085870312156117395761173861138f565b5b6000611747878288016116aa565b945050602085013567ffffffffffffffff81111561176857611767611394565b5b611774878288016116c9565b935093505060406117878782880161159b565b91505092959194509250565b6000806000604084860312156117ac576117ab61138f565b5b600084013567ffffffffffffffff8111156117ca576117c9611394565b5b6117d6868287016116c9565b935093505060206117e98682870161159b565b9150509250925092565b6117fc81611687565b82525050565b600060208201905061181760008301846117f3565b92915050565b600080604083850312156118345761183361138f565b5b600083013567ffffffffffffffff81111561185257611851611394565b5b61185e858286016114b1565b925050602061186f8582860161159b565b9150509250929050565b6000819050919050565b61188c81611879565b82525050565b60006020820190506118a76000830184611883565b92915050565b7f4e487b7100000000000000000000000000000000000000000000000000000000600052602260045260246000fd5b600060028204905060018216806118f457607f821691505b60208210811415611908576119076118ad565b5b50919050565b7f4f776e61626c653a2063616c6c6572206973206e6f7420746865206f776e6572600082015250565b60006119446020836115e8565b915061194f8261190e565b602082019050919050565b6000602082019050818103600083015261197381611937565b9050919050565b600081905092915050565b6000611991838561197a565b935061199e838584611460565b82840190509392505050565b60006119b7828486611985565b91508190509392505050565b7f494e56414c494420414444524553533a20726f75746572203d3d20616464726560008201527f7373283029000000000000000000000000000000000000000000000000000000602082015250565b6000611a1f6025836115e8565b9150611a2a826119c3565b604082019050919050565b60006020820190508181036000830152611a4e81611a12565b9050919050565b7f494e56414c494420414444524553533a20706f6f6c203d3d206164647265737360008201527f2830290000000000000000000000000000000000000000000000000000000000602082015250565b6000611ab16023836115e8565b9150611abc82611a55565b604082019050919050565b60006020820190508181036000830152611ae081611aa4565b9050919050565b6000611af2826115dd565b611afc818561197a565b9350611b0c8185602086016115f9565b80840191505092915050565b6000611b248284611ae7565b915081905092915050565b7f4f776e61626c653a206e6577206f776e657220697320746865207a65726f206160008201527f6464726573730000000000000000000000000000000000000000000000000000602082015250565b6000611b8b6026836115e8565b9150611b9682611b2f565b604082019050919050565b60006020820190508181036000830152611bba81611b7e565b905091905056fea26469706673582212208c722e515d75e36d1a7a57b36c8b9df07e7a4397f819c079d207d0236852658764736f6c634300080a0033307830303030303030303030303030303030303030303030303030303030303030303030303030303030",
  "linkReferences": {},
  "deployedLinkReferences": {}
}