{
  "_format": "hh-sol-artifact-1",
  "contractName": "SCAC",
  "sourceName": "contracts/SCAC.sol",
  "abi": [
    {
      "inputs": [
        {
          "internalType": "address",
          "name": "sender",
          "type": "address"
        },
        {
          "internalType": "address",
          "name": "depositPool",
          "type": "address"
        },
        {
          "internalType": "address",
          "name": "token0",
          "type": "address"
        },
        {
          "internalType": "address",
          "name": "token1",
          "type": "address"
        },
        {
          "internalType": "address",
          "name": "pair",
          "type": "address"
        },
        {
          "internalType": "address",
          "name": "rewardToken",
          "type": "address"
        },
        {
          "internalType": "address",
          "name": "compoundingToken",
          "type": "address"
        },
        {
          "internalType": "address",
          "name": "router",
          "type": "address"
        },
        {
          "internalType": "address",
          "name": "_poolInfo",
          "type": "address"
        }
      ],
      "stateMutability": "nonpayable",
      "type": "constructor"
    },
    {
      "anonymous": false,
      "inputs": [
        {
          "indexed": false,
          "internalType": "uint256",
          "name": "value",
          "type": "uint256"
        }
      ],
      "name": "Allow",
      "type": "event"
    },
    {
      "anonymous": false,
      "inputs": [
        {
          "indexed": true,
          "internalType": "address",
          "name": "from",
          "type": "address"
        },
        {
          "indexed": true,
          "internalType": "address",
          "name": "to",
          "type": "address"
        },
        {
          "indexed": false,
          "internalType": "uint256",
          "name": "value",
          "type": "uint256"
        }
      ],
      "name": "Deposit",
      "type": "event"
    },
    {
      "anonymous": false,
      "inputs": [
        {
          "indexed": true,
          "internalType": "address",
          "name": "previousOwner",
          "type": "address"
        },
        {
          "indexed": true,
          "internalType": "address",
          "name": "newOwner",
          "type": "address"
        }
      ],
      "name": "OwnershipTransferred",
      "type": "event"
    },
    {
      "anonymous": false,
      "inputs": [
        {
          "indexed": true,
          "internalType": "address",
          "name": "rewardSource",
          "type": "address"
        },
        {
          "indexed": true,
          "internalType": "address",
          "name": "LP",
          "type": "address"
        },
        {
          "indexed": true,
          "internalType": "address",
          "name": "compoundingTo",
          "type": "address"
        }
      ],
      "name": "StrategyCreated",
      "type": "event"
    },
    {
      "anonymous": false,
      "inputs": [
        {
          "indexed": true,
          "internalType": "address",
          "name": "createdAt",
          "type": "address"
        }
      ],
      "name": "StrategyMigrated",
      "type": "event"
    },
    {
      "inputs": [],
      "name": "GTFO",
      "outputs": [
        {
          "internalType": "bool",
          "name": "success",
          "type": "bool"
        }
      ],
      "stateMutability": "nonpayable",
      "type": "function"
    },
    {
      "inputs": [
        {
          "internalType": "uint256",
          "name": "amountSwappedTo",
          "type": "uint256"
        },
        {
          "components": [
            {
              "internalType": "address",
              "name": "depositPool",
              "type": "address"
            },
            {
              "internalType": "address",
              "name": "token0",
              "type": "address"
            },
            {
              "internalType": "address",
              "name": "token1",
              "type": "address"
            },
            {
              "internalType": "address",
              "name": "lpPair",
              "type": "address"
            },
            {
              "internalType": "address",
              "name": "rewardToken",
              "type": "address"
            },
            {
              "internalType": "address",
              "name": "compoundingToken",
              "type": "address"
            },
            {
              "internalType": "address",
              "name": "router",
              "type": "address"
            },
            {
              "internalType": "address",
              "name": "_poolInfo",
              "type": "address"
            }
          ],
          "internalType": "struct SCAC.DepositInfo",
          "name": "order",
          "type": "tuple"
        }
      ],
      "name": "addLiquidity",
      "outputs": [
        {
          "internalType": "uint256",
          "name": "amountA",
          "type": "uint256"
        },
        {
          "internalType": "uint256",
          "name": "amountB",
          "type": "uint256"
        },
        {
          "internalType": "uint256",
          "name": "liquidity",
          "type": "uint256"
        }
      ],
      "stateMutability": "nonpayable",
      "type": "function"
    },
    {
      "inputs": [
        {
          "internalType": "uint256",
          "name": "amount",
          "type": "uint256"
        }
      ],
      "name": "approveLPAndDeposit",
      "outputs": [
        {
          "internalType": "bool",
          "name": "success",
          "type": "bool"
        }
      ],
      "stateMutability": "payable",
      "type": "function"
    },
    {
      "inputs": [
        {
          "internalType": "contract IERC20TokenV06",
          "name": "token",
          "type": "address"
        },
        {
          "internalType": "address",
          "name": "owner",
          "type": "address"
        },
        {
          "internalType": "address",
          "name": "spender",
          "type": "address"
        }
      ],
      "name": "approveTokenForSwap",
      "outputs": [
        {
          "internalType": "uint256",
          "name": "approvalAmount",
          "type": "uint256"
        }
      ],
      "stateMutability": "nonpayable",
      "type": "function"
    },
    {
      "inputs": [
        {
          "internalType": "contract IERC20TokenV06",
          "name": "token",
          "type": "address"
        },
        {
          "internalType": "address",
          "name": "owner",
          "type": "address"
        },
        {
          "internalType": "address",
          "name": "spender",
          "type": "address"
        }
      ],
      "name": "checkAllowance",
      "outputs": [
        {
          "internalType": "uint256",
          "name": "",
          "type": "uint256"
        }
      ],
      "stateMutability": "nonpayable",
      "type": "function"
    },
    {
      "inputs": [
        {
          "internalType": "contract IERC20TokenV06",
          "name": "token",
          "type": "address"
        },
        {
          "internalType": "uint256",
          "name": "amount",
          "type": "uint256"
        },
        {
          "internalType": "address",
          "name": "owner",
          "type": "address"
        },
        {
          "internalType": "address",
          "name": "spender",
          "type": "address"
        }
      ],
      "name": "checkAndSetAllowances",
      "outputs": [
        {
          "internalType": "uint256",
          "name": "",
          "type": "uint256"
        }
      ],
      "stateMutability": "nonpayable",
      "type": "function"
    },
    {
      "inputs": [
        {
          "components": [
            {
              "internalType": "address",
              "name": "depositPool",
              "type": "address"
            },
            {
              "internalType": "address",
              "name": "token0",
              "type": "address"
            },
            {
              "internalType": "address",
              "name": "token1",
              "type": "address"
            },
            {
              "internalType": "address",
              "name": "lpPair",
              "type": "address"
            },
            {
              "internalType": "address",
              "name": "rewardToken",
              "type": "address"
            },
            {
              "internalType": "address",
              "name": "compoundingToken",
              "type": "address"
            },
            {
              "internalType": "address",
              "name": "router",
              "type": "address"
            },
            {
              "internalType": "address",
              "name": "_poolInfo",
              "type": "address"
            }
          ],
          "internalType": "struct SCAC.DepositInfo",
          "name": "order",
          "type": "tuple"
        }
      ],
      "name": "checkCompoundingBalance",
      "outputs": [
        {
          "internalType": "uint256",
          "name": "",
          "type": "uint256"
        },
        {
          "internalType": "uint256",
          "name": "",
          "type": "uint256"
        }
      ],
      "stateMutability": "nonpayable",
      "type": "function"
    },
    {
      "inputs": [],
      "name": "checkPendingRewards",
      "outputs": [
        {
          "internalType": "uint256",
          "name": "amountDeposited",
          "type": "uint256"
        },
        {
          "internalType": "uint256",
          "name": "rewardsAccrued",
          "type": "uint256"
        }
      ],
      "stateMutability": "view",
      "type": "function"
    },
    {
      "inputs": [],
      "name": "compound",
      "outputs": [],
      "stateMutability": "nonpayable",
      "type": "function"
    },
    {
      "inputs": [
        {
          "internalType": "uint256",
          "name": "amount",
          "type": "uint256"
        },
        {
          "internalType": "contract IERC20TokenV06",
          "name": "token",
          "type": "address"
        }
      ],
      "name": "deposit",
      "outputs": [
        {
          "internalType": "bool",
          "name": "success",
          "type": "bool"
        }
      ],
      "stateMutability": "payable",
      "type": "function"
    },
    {
      "inputs": [
        {
          "components": [
            {
              "internalType": "address",
              "name": "depositPool",
              "type": "address"
            },
            {
              "internalType": "address",
              "name": "token0",
              "type": "address"
            },
            {
              "internalType": "address",
              "name": "token1",
              "type": "address"
            },
            {
              "internalType": "address",
              "name": "lpPair",
              "type": "address"
            },
            {
              "internalType": "address",
              "name": "rewardToken",
              "type": "address"
            },
            {
              "internalType": "address",
              "name": "compoundingToken",
              "type": "address"
            },
            {
              "internalType": "address",
              "name": "router",
              "type": "address"
            },
            {
              "internalType": "address",
              "name": "_poolInfo",
              "type": "address"
            }
          ],
          "internalType": "struct SCAC.DepositInfo",
          "name": "order",
          "type": "tuple"
        }
      ],
      "name": "depositIntoFarm",
      "outputs": [
        {
          "internalType": "bool",
          "name": "success",
          "type": "bool"
        },
        {
          "internalType": "uint256",
          "name": "amountDeposited",
          "type": "uint256"
        }
      ],
      "stateMutability": "nonpayable",
      "type": "function"
    },
    {
      "inputs": [
        {
          "internalType": "address",
          "name": "token1",
          "type": "address"
        },
        {
          "internalType": "address",
          "name": "token2",
          "type": "address"
        }
      ],
      "name": "getPathForTokenToToken",
      "outputs": [
        {
          "internalType": "address[]",
          "name": "",
          "type": "address[]"
        }
      ],
      "stateMutability": "view",
      "type": "function"
    },
    {
      "inputs": [
        {
          "internalType": "address",
          "name": "token",
          "type": "address"
        },
        {
          "internalType": "address",
          "name": "target",
          "type": "address"
        }
      ],
      "name": "logAllowance",
      "outputs": [],
      "stateMutability": "nonpayable",
      "type": "function"
    },
    {
      "inputs": [],
      "name": "owner",
      "outputs": [
        {
          "internalType": "address",
          "name": "",
          "type": "address"
        }
      ],
      "stateMutability": "view",
      "type": "function"
    },
    {
      "inputs": [
        {
          "internalType": "address",
          "name": "pool",
          "type": "address"
        }
      ],
      "name": "pairExists",
      "outputs": [
        {
          "internalType": "bool",
          "name": "exists",
          "type": "bool"
        }
      ],
      "stateMutability": "view",
      "type": "function"
    },
    {
      "inputs": [],
      "name": "pendingRewards",
      "outputs": [
        {
          "internalType": "uint256",
          "name": "amount",
          "type": "uint256"
        }
      ],
      "stateMutability": "nonpayable",
      "type": "function"
    },
    {
      "inputs": [
        {
          "internalType": "uint256",
          "name": "lpToRemove",
          "type": "uint256"
        },
        {
          "components": [
            {
              "internalType": "address",
              "name": "depositPool",
              "type": "address"
            },
            {
              "internalType": "address",
              "name": "token0",
              "type": "address"
            },
            {
              "internalType": "address",
              "name": "token1",
              "type": "address"
            },
            {
              "internalType": "address",
              "name": "lpPair",
              "type": "address"
            },
            {
              "internalType": "address",
              "name": "rewardToken",
              "type": "address"
            },
            {
              "internalType": "address",
              "name": "compoundingToken",
              "type": "address"
            },
            {
              "internalType": "address",
              "name": "router",
              "type": "address"
            },
            {
              "internalType": "address",
              "name": "_poolInfo",
              "type": "address"
            }
          ],
          "internalType": "struct SCAC.DepositInfo",
          "name": "order",
          "type": "tuple"
        }
      ],
      "name": "removeLiquidity",
      "outputs": [
        {
          "internalType": "uint256",
          "name": "amountA",
          "type": "uint256"
        },
        {
          "internalType": "uint256",
          "name": "amountB",
          "type": "uint256"
        }
      ],
      "stateMutability": "nonpayable",
      "type": "function"
    },
    {
      "inputs": [],
      "name": "renounceOwnership",
      "outputs": [],
      "stateMutability": "nonpayable",
      "type": "function"
    },
    {
      "inputs": [
        {
          "internalType": "address",
          "name": "router",
          "type": "address"
        }
      ],
      "name": "routerExists",
      "outputs": [
        {
          "internalType": "bool",
          "name": "exists",
          "type": "bool"
        }
      ],
      "stateMutability": "view",
      "type": "function"
    },
    {
      "inputs": [
        {
          "internalType": "address",
          "name": "",
          "type": "address"
        }
      ],
      "name": "strategies",
      "outputs": [
        {
          "internalType": "address",
          "name": "depositPool",
          "type": "address"
        },
        {
          "internalType": "address",
          "name": "token0",
          "type": "address"
        },
        {
          "internalType": "address",
          "name": "token1",
          "type": "address"
        },
        {
          "internalType": "address",
          "name": "lpPair",
          "type": "address"
        },
        {
          "internalType": "address",
          "name": "rewardToken",
          "type": "address"
        },
        {
          "internalType": "address",
          "name": "compoundingToken",
          "type": "address"
        },
        {
          "internalType": "address",
          "name": "router",
          "type": "address"
        },
        {
          "internalType": "address",
          "name": "_poolInfo",
          "type": "address"
        }
      ],
      "stateMutability": "view",
      "type": "function"
    },
    {
      "inputs": [],
      "name": "testCallContext",
      "outputs": [
        {
          "internalType": "address",
          "name": "",
          "type": "address"
        },
        {
          "internalType": "address",
          "name": "",
          "type": "address"
        }
      ],
      "stateMutability": "nonpayable",
      "type": "function"
    },
    {
      "inputs": [],
      "name": "testDelegateCall",
      "outputs": [
        {
          "internalType": "string",
          "name": "",
          "type": "string"
        }
      ],
      "stateMutability": "view",
      "type": "function"
    },
    {
      "inputs": [
        {
          "internalType": "address",
          "name": "newOwner",
          "type": "address"
        }
      ],
      "name": "transferOwnership",
      "outputs": [],
      "stateMutability": "nonpayable",
      "type": "function"
    },
    {
      "inputs": [
        {
          "internalType": "uint256",
          "name": "amount",
          "type": "uint256"
        }
      ],
      "name": "zapInAndDeposit",
      "outputs": [
        {
          "internalType": "bool",
          "name": "success",
          "type": "bool"
        },
        {
          "internalType": "uint256",
          "name": "lpRecieved",
          "type": "uint256"
        }
      ],
      "stateMutability": "payable",
      "type": "function"
    }
  ],
  "bytecode": "0x60a06040526040518060600160405280602a8152602001620053f4602a9139600290805190602001906200003592919062000cd5565b50600073ffffffffffffffffffffffffffffffffffffffff1660809073ffffffffffffffffffffffffffffffffffffffff1681525060006005553480156200007c57600080fd5b506040516200541e3803806200541e8339818101604052810190620000a2919062000def565b620000c2620000b66200097660201b60201c565b6200097e60201b60201c565b80600160006101000a81548173ffffffffffffffffffffffffffffffffffffffff021916908373ffffffffffffffffffffffffffffffffffffffff16021790555087600460006101000a81548173ffffffffffffffffffffffffffffffffffffffff021916908373ffffffffffffffffffffffffffffffffffffffff16021790555060805173ffffffffffffffffffffffffffffffffffffffff168373ffffffffffffffffffffffffffffffffffffffff1614156200017f578392505b60001515620001948662000a4260201b60201c565b151514620001d9576040517f08c379a0000000000000000000000000000000000000000000000000000000008152600401620001d09062000f55565b60405180910390fd5b60001515620001ee8362000aec60201b60201c565b15151462000233576040517f08c379a00000000000000000000000000000000000000000000000000000000081526004016200022a9062000fed565b60405180910390fd5b6040518061010001604052808973ffffffffffffffffffffffffffffffffffffffff1681526020018873ffffffffffffffffffffffffffffffffffffffff1681526020018773ffffffffffffffffffffffffffffffffffffffff1681526020018673ffffffffffffffffffffffffffffffffffffffff1681526020018573ffffffffffffffffffffffffffffffffffffffff1681526020018473ffffffffffffffffffffffffffffffffffffffff1681526020018373ffffffffffffffffffffffffffffffffffffffff1681526020018273ffffffffffffffffffffffffffffffffffffffff16815250600760008201518160000160006101000a81548173ffffffffffffffffffffffffffffffffffffffff021916908373ffffffffffffffffffffffffffffffffffffffff16021790555060208201518160010160006101000a81548173ffffffffffffffffffffffffffffffffffffffff021916908373ffffffffffffffffffffffffffffffffffffffff16021790555060408201518160020160006101000a81548173ffffffffffffffffffffffffffffffffffffffff021916908373ffffffffffffffffffffffffffffffffffffffff16021790555060608201518160030160006101000a81548173ffffffffffffffffffffffffffffffffffffffff021916908373ffffffffffffffffffffffffffffffffffffffff16021790555060808201518160040160006101000a81548173ffffffffffffffffffffffffffffffffffffffff021916908373ffffffffffffffffffffffffffffffffffffffff16021790555060a08201518160050160006101000a81548173ffffffffffffffffffffffffffffffffffffffff021916908373ffffffffffffffffffffffffffffffffffffffff16021790555060c08201518160060160006101000a81548173ffffffffffffffffffffffffffffffffffffffff021916908373ffffffffffffffffffffffffffffffffffffffff16021790555060e08201518160070160006101000a81548173ffffffffffffffffffffffffffffffffffffffff021916908373ffffffffffffffffffffffffffffffffffffffff1602179055509050506007600660008b73ffffffffffffffffffffffffffffffffffffffff1673ffffffffffffffffffffffffffffffffffffffff1681526020019081526020016000206000820160009054906101000a900473ffffffffffffffffffffffffffffffffffffffff168160000160006101000a81548173ffffffffffffffffffffffffffffffffffffffff021916908373ffffffffffffffffffffffffffffffffffffffff1602179055506001820160009054906101000a900473ffffffffffffffffffffffffffffffffffffffff168160010160006101000a81548173ffffffffffffffffffffffffffffffffffffffff021916908373ffffffffffffffffffffffffffffffffffffffff1602179055506002820160009054906101000a900473ffffffffffffffffffffffffffffffffffffffff168160020160006101000a81548173ffffffffffffffffffffffffffffffffffffffff021916908373ffffffffffffffffffffffffffffffffffffffff1602179055506003820160009054906101000a900473ffffffffffffffffffffffffffffffffffffffff168160030160006101000a81548173ffffffffffffffffffffffffffffffffffffffff021916908373ffffffffffffffffffffffffffffffffffffffff1602179055506004820160009054906101000a900473ffffffffffffffffffffffffffffffffffffffff168160040160006101000a81548173ffffffffffffffffffffffffffffffffffffffff021916908373ffffffffffffffffffffffffffffffffffffffff1602179055506005820160009054906101000a900473ffffffffffffffffffffffffffffffffffffffff168160050160006101000a81548173ffffffffffffffffffffffffffffffffffffffff021916908373ffffffffffffffffffffffffffffffffffffffff1602179055506006820160009054906101000a900473ffffffffffffffffffffffffffffffffffffffff168160060160006101000a81548173ffffffffffffffffffffffffffffffffffffffff021916908373ffffffffffffffffffffffffffffffffffffffff1602179055506007820160009054906101000a900473ffffffffffffffffffffffffffffffffffffffff168160070160006101000a81548173ffffffffffffffffffffffffffffffffffffffff021916908373ffffffffffffffffffffffffffffffffffffffff160217905550905050620008e78962000b9660201b60201c565b8873ffffffffffffffffffffffffffffffffffffffff166200090e62000cac60201b60201c565b73ffffffffffffffffffffffffffffffffffffffff161462000967576040517f08c379a00000000000000000000000000000000000000000000000000000000081526004016200095e906200105f565b60405180910390fd5b5050505050505050506200128d565b600033905090565b60008060009054906101000a900473ffffffffffffffffffffffffffffffffffffffff169050816000806101000a81548173ffffffffffffffffffffffffffffffffffffffff021916908373ffffffffffffffffffffffffffffffffffffffff1602179055508173ffffffffffffffffffffffffffffffffffffffff168173ffffffffffffffffffffffffffffffffffffffff167f8be0079c531659141344cd1fd0a4f28419497f9722a3daafe3b4186f6b6457e060405160405180910390a35050565b6000600160009054906101000a900473ffffffffffffffffffffffffffffffffffffffff1673ffffffffffffffffffffffffffffffffffffffff16636b94b47d836040518263ffffffff1660e01b815260040162000aa1919062001092565b602060405180830381865afa15801562000abf573d6000803e3d6000fd5b505050506040513d601f19601f8201168201806040525081019062000ae59190620010ec565b9050919050565b6000600160009054906101000a900473ffffffffffffffffffffffffffffffffffffffff1673ffffffffffffffffffffffffffffffffffffffff166378218229836040518263ffffffff1660e01b815260040162000b4b919062001092565b602060405180830381865afa15801562000b69573d6000803e3d6000fd5b505050506040513d601f19601f8201168201806040525081019062000b8f9190620010ec565b9050919050565b62000ba66200097660201b60201c565b73ffffffffffffffffffffffffffffffffffffffff1662000bcc62000cac60201b60201c565b73ffffffffffffffffffffffffffffffffffffffff161462000c25576040517f08c379a000000000000000000000000000000000000000000000000000000000815260040162000c1c906200116e565b60405180910390fd5b600073ffffffffffffffffffffffffffffffffffffffff168173ffffffffffffffffffffffffffffffffffffffff16141562000c98576040517f08c379a000000000000000000000000000000000000000000000000000000000815260040162000c8f9062001206565b60405180910390fd5b62000ca9816200097e60201b60201c565b50565b60008060009054906101000a900473ffffffffffffffffffffffffffffffffffffffff16905090565b82805462000ce39062001257565b90600052602060002090601f01602090048101928262000d07576000855562000d53565b82601f1062000d2257805160ff191683800117855562000d53565b8280016001018555821562000d53579182015b8281111562000d5257825182559160200191906001019062000d35565b5b50905062000d62919062000d66565b5090565b5b8082111562000d8157600081600090555060010162000d67565b5090565b600080fd5b600073ffffffffffffffffffffffffffffffffffffffff82169050919050565b600062000db78262000d8a565b9050919050565b62000dc98162000daa565b811462000dd557600080fd5b50565b60008151905062000de98162000dbe565b92915050565b60008060008060008060008060006101208a8c03121562000e155762000e1462000d85565b5b600062000e258c828d0162000dd8565b995050602062000e388c828d0162000dd8565b985050604062000e4b8c828d0162000dd8565b975050606062000e5e8c828d0162000dd8565b965050608062000e718c828d0162000dd8565b95505060a062000e848c828d0162000dd8565b94505060c062000e978c828d0162000dd8565b93505060e062000eaa8c828d0162000dd8565b92505061010062000ebe8c828d0162000dd8565b9150509295985092959850929598565b600082825260208201905092915050565b7f50616972206973206e6f742063757272656e746c7920737570706f727465642060008201527f6279207468652070726f746f636f6c0000000000000000000000000000000000602082015250565b600062000f3d602f8362000ece565b915062000f4a8262000edf565b604082019050919050565b6000602082019050818103600083015262000f708162000f2e565b9050919050565b7f526f75746572206973206e6f742063757272656e746c7920737570706f72746560008201527f64206279207468652070726f746f636f6c000000000000000000000000000000602082015250565b600062000fd560318362000ece565b915062000fe28262000f77565b604082019050919050565b60006020820190508181036000830152620010088162000fc6565b9050919050565b7f556e61626c6520746f207472616e73666572206f776e65727368697000000000600082015250565b600062001047601c8362000ece565b915062001054826200100f565b602082019050919050565b600060208201905081810360008301526200107a8162001038565b9050919050565b6200108c8162000daa565b82525050565b6000602082019050620010a9600083018462001081565b92915050565b60008115159050919050565b620010c681620010af565b8114620010d257600080fd5b50565b600081519050620010e681620010bb565b92915050565b60006020828403121562001105576200110462000d85565b5b60006200111584828501620010d5565b91505092915050565b7f4f776e61626c653a2063616c6c6572206973206e6f7420746865206f776e6572600082015250565b60006200115660208362000ece565b915062001163826200111e565b602082019050919050565b60006020820190508181036000830152620011898162001147565b9050919050565b7f4f776e61626c653a206e6577206f776e657220697320746865207a65726f206160008201527f6464726573730000000000000000000000000000000000000000000000000000602082015250565b6000620011ee60268362000ece565b9150620011fb8262001190565b604082019050919050565b600060208201905081810360008301526200122181620011df565b9050919050565b7f4e487b7100000000000000000000000000000000000000000000000000000000600052602260045260246000fd5b600060028204905060018216806200127057607f821691505b6020821081141562001287576200128662001228565b5b50919050565b60805161414e620012a66000396000505061414e6000f3fe60806040526004361061014b5760003560e01c80638ac770a4116100b6578063e1e363411161006f578063e1e3634114610510578063eded3fda1461053b578063f14ce3f814610566578063f2fde38b14610592578063f649fcc1146105bb578063f69e2046146105f95761014b565b80638ac770a4146103b05780638ca5f772146103ee5780638da5cb5b1461042b5780638dea7a8914610456578063a891826a14610495578063aa5d79e9146104d35761014b565b806359bea9431161010857806359bea943146102b857806367bad9d9146102e45780636914a25a1461030f5780636e553f6514610338578063715018a61461036857806378523c3f1461037f5761014b565b80630c51b45e146101505780630d7eb8a6146101805780631a56f648146101bd57806335d25414146101fa57806339ebf82314610237578063472343531461027b575b600080fd5b61016a60048036038101906101659190612fb4565b610610565b6040516101779190612ffc565b60405180910390f35b34801561018c57600080fd5b506101a760048036038101906101a29190613075565b610693565b6040516101b49190613173565b60405180910390f35b3480156101c957600080fd5b506101e460048036038101906101df9190613195565b61078b565b6040516101f19190612ffc565b60405180910390f35b34801561020657600080fd5b50610221600480360381019061021c9190613195565b610830565b60405161022e9190612ffc565b60405180910390f35b34801561024357600080fd5b5061025e60048036038101906102599190613195565b6108d5565b6040516102729897969594939291906131d1565b60405180910390f35b34801561028757600080fd5b506102a2600480360381019061029d919061328d565b610a1d565b6040516102af9190613303565b60405180910390f35b3480156102c457600080fd5b506102cd610cde565b6040516102db92919061331e565b60405180910390f35b3480156102f057600080fd5b506102f9610ceb565b6040516103069190612ffc565b60405180910390f35b34801561031b57600080fd5b5061033660048036038101906103319190613075565b610d6c565b005b610352600480360381019061034d9190613347565b610df1565b60405161035f9190612ffc565b60405180910390f35b34801561037457600080fd5b5061037d611034565b005b61039960048036038101906103949190612fb4565b6110bc565b6040516103a7929190613387565b60405180910390f35b3480156103bc57600080fd5b506103d760048036038101906103d2919061350b565b6114c1565b6040516103e5929190613387565b60405180910390f35b3480156103fa57600080fd5b5061041560048036038101906104109190613539565b6118a0565b6040516104229190613303565b60405180910390f35b34801561043757600080fd5b50610440611927565b60405161044d919061358c565b60405180910390f35b34801561046257600080fd5b5061047d600480360381019061047891906135a7565b611950565b60405161048c939291906135e8565b60405180910390f35b3480156104a157600080fd5b506104bc60048036038101906104b791906135a7565b611a93565b6040516104ca92919061361f565b60405180910390f35b3480156104df57600080fd5b506104fa60048036038101906104f59190613539565b611d6e565b6040516105079190613303565b60405180910390f35b34801561051c57600080fd5b50610525611f49565b60405161053291906136d0565b60405180910390f35b34801561054757600080fd5b50610550611f86565b60405161055d9190613303565b60405180910390f35b34801561057257600080fd5b5061057b611f8b565b60405161058992919061361f565b60405180910390f35b34801561059e57600080fd5b506105b960048036038101906105b49190613195565b612034565b005b3480156105c757600080fd5b506105e260048036038101906105dd919061350b565b61212c565b6040516105f092919061361f565b60405180910390f35b34801561060557600080fd5b5061060e6121d6565b005b600061061a6125a8565b73ffffffffffffffffffffffffffffffffffffffff16610638611927565b73ffffffffffffffffffffffffffffffffffffffff161461068e576040517f08c379a00000000000000000000000000000000000000000000000000000000081526004016106859061373e565b60405180910390fd5b919050565b60606000600267ffffffffffffffff8111156106b2576106b16133c6565b5b6040519080825280602002602001820160405280156106e05781602001602082028036833780820191505090505b50905083816000815181106106f8576106f761375e565b5b602002602001019073ffffffffffffffffffffffffffffffffffffffff16908173ffffffffffffffffffffffffffffffffffffffff168152505082816001815181106107475761074661375e565b5b602002602001019073ffffffffffffffffffffffffffffffffffffffff16908173ffffffffffffffffffffffffffffffffffffffff16815250508091505092915050565b6000600160009054906101000a900473ffffffffffffffffffffffffffffffffffffffff1673ffffffffffffffffffffffffffffffffffffffff16636b94b47d836040518263ffffffff1660e01b81526004016107e8919061358c565b602060405180830381865afa158015610805573d6000803e3d6000fd5b505050506040513d601f19601f8201168201806040525081019061082991906137b9565b9050919050565b6000600160009054906101000a900473ffffffffffffffffffffffffffffffffffffffff1673ffffffffffffffffffffffffffffffffffffffff166378218229836040518263ffffffff1660e01b815260040161088d919061358c565b602060405180830381865afa1580156108aa573d6000803e3d6000fd5b505050506040513d601f19601f820116820180604052508101906108ce91906137b9565b9050919050565b60066020528060005260406000206000915090508060000160009054906101000a900473ffffffffffffffffffffffffffffffffffffffff16908060010160009054906101000a900473ffffffffffffffffffffffffffffffffffffffff16908060020160009054906101000a900473ffffffffffffffffffffffffffffffffffffffff16908060030160009054906101000a900473ffffffffffffffffffffffffffffffffffffffff16908060040160009054906101000a900473ffffffffffffffffffffffffffffffffffffffff16908060050160009054906101000a900473ffffffffffffffffffffffffffffffffffffffff16908060060160009054906101000a900473ffffffffffffffffffffffffffffffffffffffff16908060070160009054906101000a900473ffffffffffffffffffffffffffffffffffffffff16905088565b6000808573ffffffffffffffffffffffffffffffffffffffff1663dd62ed3e85856040518363ffffffff1660e01b8152600401610a5b92919061331e565b602060405180830381865afa158015610a78573d6000803e3d6000fd5b505050506040513d601f19601f82011682018060405250810190610a9c91906137fb565b9050848110610aae5780915050610cd6565b6000808773ffffffffffffffffffffffffffffffffffffffff16857fffffffffffffffffffffffffffffffffffffffffffffffffffffffffffffffff604051602401610afb929190613828565b6040516020818303038152906040527f8b069f2a000000000000000000000000000000000000000000000000000000007bffffffffffffffffffffffffffffffffffffffffffffffffffffffff19166020820180517bffffffffffffffffffffffffffffffffffffffffffffffffffffffff8381831617835250505050604051610b859190613898565b600060405180830381855af49150503d8060008114610bc0576040519150601f19603f3d011682016040523d82523d6000602084013e610bc5565b606091505b5091509150828873ffffffffffffffffffffffffffffffffffffffff1663dd62ed3e88886040518363ffffffff1660e01b8152600401610c0692919061331e565b602060405180830381865afa158015610c23573d6000803e3d6000fd5b505050506040513d601f19601f82011682018060405250810190610c4791906137fb565b11610c5157600080fd5b8773ffffffffffffffffffffffffffffffffffffffff1663dd62ed3e87876040518363ffffffff1660e01b8152600401610c8c92919061331e565b602060405180830381865afa158015610ca9573d6000803e3d6000fd5b505050506040513d601f19601f82011682018060405250810190610ccd91906137fb565b92508293505050505b949350505050565b6000803332915091509091565b6000610cf56125a8565b73ffffffffffffffffffffffffffffffffffffffff16610d13611927565b73ffffffffffffffffffffffffffffffffffffffff1614610d69576040517f08c379a0000000000000000000000000000000000000000000000000000000008152600401610d609061373e565b60405180910390fd5b90565b60008273ffffffffffffffffffffffffffffffffffffffff1663dd62ed3e30846040518363ffffffff1660e01b8152600401610da992919061331e565b602060405180830381865afa158015610dc6573d6000803e3d6000fd5b505050506040513d601f19601f82011682018060405250810190610dea91906137fb565b9050505050565b6000610dfb6125a8565b73ffffffffffffffffffffffffffffffffffffffff16610e19611927565b73ffffffffffffffffffffffffffffffffffffffff1614610e6f576040517f08c379a0000000000000000000000000000000000000000000000000000000008152600401610e669061373e565b60405180910390fd5b60008273ffffffffffffffffffffffffffffffffffffffff1663dd62ed3e33306040518363ffffffff1660e01b8152600401610eac92919061331e565b602060405180830381865afa158015610ec9573d6000803e3d6000fd5b505050506040513d601f19601f82011682018060405250810190610eed91906137fb565b905083811015610f32576040517f08c379a0000000000000000000000000000000000000000000000000000000008152600401610f29906138fb565b60405180910390fd5b60008373ffffffffffffffffffffffffffffffffffffffff166323b872dd3330886040518463ffffffff1660e01b8152600401610f719392919061391b565b6020604051808303816000875af1158015610f90573d6000803e3d6000fd5b505050506040513d601f19601f82011682018060405250810190610fb491906137b9565b9050600115158115151415611029573073ffffffffffffffffffffffffffffffffffffffff163373ffffffffffffffffffffffffffffffffffffffff167f5548c837ab068cf56a2c2479df0882a4922fd203edb7517321831d95078c5f62876040516110209190613303565b60405180910390a35b809250505092915050565b61103c6125a8565b73ffffffffffffffffffffffffffffffffffffffff1661105a611927565b73ffffffffffffffffffffffffffffffffffffffff16146110b0576040517f08c379a00000000000000000000000000000000000000000000000000000000081526004016110a79061373e565b60405180910390fd5b6110ba60006125b0565b565b6000806110c76125a8565b73ffffffffffffffffffffffffffffffffffffffff166110e5611927565b73ffffffffffffffffffffffffffffffffffffffff161461113b576040517f08c379a00000000000000000000000000000000000000000000000000000000081526004016111329061373e565b60405180910390fd5b600060066000611149611927565b73ffffffffffffffffffffffffffffffffffffffff1673ffffffffffffffffffffffffffffffffffffffff168152602001908152602001600020604051806101000160405290816000820160009054906101000a900473ffffffffffffffffffffffffffffffffffffffff1673ffffffffffffffffffffffffffffffffffffffff1673ffffffffffffffffffffffffffffffffffffffff1681526020016001820160009054906101000a900473ffffffffffffffffffffffffffffffffffffffff1673ffffffffffffffffffffffffffffffffffffffff1673ffffffffffffffffffffffffffffffffffffffff1681526020016002820160009054906101000a900473ffffffffffffffffffffffffffffffffffffffff1673ffffffffffffffffffffffffffffffffffffffff1673ffffffffffffffffffffffffffffffffffffffff1681526020016003820160009054906101000a900473ffffffffffffffffffffffffffffffffffffffff1673ffffffffffffffffffffffffffffffffffffffff1673ffffffffffffffffffffffffffffffffffffffff1681526020016004820160009054906101000a900473ffffffffffffffffffffffffffffffffffffffff1673ffffffffffffffffffffffffffffffffffffffff1673ffffffffffffffffffffffffffffffffffffffff1681526020016005820160009054906101000a900473ffffffffffffffffffffffffffffffffffffffff1673ffffffffffffffffffffffffffffffffffffffff1673ffffffffffffffffffffffffffffffffffffffff1681526020016006820160009054906101000a900473ffffffffffffffffffffffffffffffffffffffff1673ffffffffffffffffffffffffffffffffffffffff1673ffffffffffffffffffffffffffffffffffffffff1681526020016007820160009054906101000a900473ffffffffffffffffffffffffffffffffffffffff1673ffffffffffffffffffffffffffffffffffffffff1673ffffffffffffffffffffffffffffffffffffffff1681525050905061145481602001518260c0015186612674565b5061146881604001518260c0015186612674565b5060008061148c60028761147c91906139b0565b84856020015186604001516126aa565b91509150600080600061149f8487611950565b9250925092506114ae866114c1565b5050848197509750505050505050915091565b6000806114cc6125a8565b73ffffffffffffffffffffffffffffffffffffffff166114ea611927565b73ffffffffffffffffffffffffffffffffffffffff1614611540576040517f08c379a00000000000000000000000000000000000000000000000000000000081526004016115379061373e565b60405180910390fd5b6000600360009054906101000a900473ffffffffffffffffffffffffffffffffffffffff1673ffffffffffffffffffffffffffffffffffffffff1663c45a01556040518163ffffffff1660e01b8152600401602060405180830381865afa1580156115af573d6000803e3d6000fd5b505050506040513d601f19601f820116820180604052508101906115d391906139f6565b73ffffffffffffffffffffffffffffffffffffffff1663e6a43905856020015186604001516040518363ffffffff1660e01b815260040161161592919061331e565b602060405180830381865afa158015611632573d6000803e3d6000fd5b505050506040513d601f19601f8201168201806040525081019061165691906139f6565b90506000611669823087600001516118a0565b14156116875761167d818560000151612b42565b61168657600080fd5b5b60008173ffffffffffffffffffffffffffffffffffffffff166370a08231306040518263ffffffff1660e01b81526004016116c2919061358c565b602060405180830381865afa1580156116df573d6000803e3d6000fd5b505050506040513d601f19601f8201168201806040525081019061170391906137fb565b90506000811161171257600080fd5b8460000151600460006101000a81548173ffffffffffffffffffffffffffffffffffffffff021916908373ffffffffffffffffffffffffffffffffffffffff160217905550600080600460009054906101000a900473ffffffffffffffffffffffffffffffffffffffff1673ffffffffffffffffffffffffffffffffffffffff1663e2bbb1586000856040518363ffffffff1660e01b81526004016117b8929190613a68565b600060405180830381600087803b1580156117d257600080fd5b505af11580156117e6573d6000803e3d6000fd5b50505050600460009054906101000a900473ffffffffffffffffffffffffffffffffffffffff1673ffffffffffffffffffffffffffffffffffffffff166393f1a40b6000306040518363ffffffff1660e01b8152600401611848929190613a91565b6040805180830381865afa158015611864573d6000803e3d6000fd5b505050506040513d601f19601f820116820180604052508101906118889190613aba565b80925081935050506001829550955050505050915091565b60008373ffffffffffffffffffffffffffffffffffffffff1663dd62ed3e84846040518363ffffffff1660e01b81526004016118dd92919061331e565b602060405180830381865afa1580156118fa573d6000803e3d6000fd5b505050506040513d601f19601f8201168201806040525081019061191e91906137fb565b90509392505050565b60008060009054906101000a900473ffffffffffffffffffffffffffffffffffffffff16905090565b600080600061195d6125a8565b73ffffffffffffffffffffffffffffffffffffffff1661197b611927565b73ffffffffffffffffffffffffffffffffffffffff16146119d1576040517f08c379a00000000000000000000000000000000000000000000000000000000081526004016119c89061373e565b60405180910390fd5b600360009054906101000a900473ffffffffffffffffffffffffffffffffffffffff1673ffffffffffffffffffffffffffffffffffffffff1663e8e3370085602001518660400151888960018030426040518963ffffffff1660e01b8152600401611a43989796959493929190613b35565b6060604051808303816000875af1158015611a62573d6000803e3d6000fd5b505050506040513d601f19601f82011682018060405250810190611a869190613bb3565b9250925092509250925092565b600080611a9e6125a8565b73ffffffffffffffffffffffffffffffffffffffff16611abc611927565b73ffffffffffffffffffffffffffffffffffffffff1614611b12576040517f08c379a0000000000000000000000000000000000000000000000000000000008152600401611b099061373e565b60405180910390fd5b6000600360009054906101000a900473ffffffffffffffffffffffffffffffffffffffff1673ffffffffffffffffffffffffffffffffffffffff1663c45a01556040518163ffffffff1660e01b8152600401602060405180830381865afa158015611b81573d6000803e3d6000fd5b505050506040513d601f19601f82011682018060405250810190611ba591906139f6565b73ffffffffffffffffffffffffffffffffffffffff1663e6a43905856020015186604001516040518363ffffffff1660e01b8152600401611be792919061331e565b602060405180830381865afa158015611c04573d6000803e3d6000fd5b505050506040513d601f19601f82011682018060405250810190611c2891906139f6565b90506000851415611cb0578073ffffffffffffffffffffffffffffffffffffffff166370a08231306040518263ffffffff1660e01b8152600401611c6c919061358c565b602060405180830381865afa158015611c89573d6000803e3d6000fd5b505050506040513d601f19601f82011682018060405250810190611cad91906137fb565b94505b600360009054906101000a900473ffffffffffffffffffffffffffffffffffffffff1673ffffffffffffffffffffffffffffffffffffffff1663baa2abde856020015186604001518860018030426040518863ffffffff1660e01b8152600401611d209796959493929190613c06565b60408051808303816000875af1158015611d3e573d6000803e3d6000fd5b505050506040513d601f19601f82011682018060405250810190611d629190613aba565b92509250509250929050565b600080611d7c8585856118a0565b9050808210611d8e5780915050611f42565b6000808673ffffffffffffffffffffffffffffffffffffffff16857fffffffffffffffffffffffffffffffffffffffffffffffffffffffffffffffff604051602401611ddb929190613828565b6040516020818303038152906040527f8b069f2a000000000000000000000000000000000000000000000000000000007bffffffffffffffffffffffffffffffffffffffffffffffffffffffff19166020820180517bffffffffffffffffffffffffffffffffffffffffffffffffffffffff8381831617835250505050604051611e659190613898565b600060405180830381855af49150503d8060008114611ea0576040519150601f19603f3d011682016040523d82523d6000602084013e611ea5565b606091505b50915091506001151582151514611ef1576040517f08c379a0000000000000000000000000000000000000000000000000000000008152600401611ee890613ce7565b60405180910390fd5b83611efd8888886118a0565b1015611f3e576040517f08c379a0000000000000000000000000000000000000000000000000000000008152600401611f3590613d79565b60405180910390fd5b5050505b9392505050565b60606040518060400160405280600481526020017f7465737400000000000000000000000000000000000000000000000000000000815250905090565b600090565b600080600460009054906101000a900473ffffffffffffffffffffffffffffffffffffffff1673ffffffffffffffffffffffffffffffffffffffff166393f1a40b6000306040518363ffffffff1660e01b8152600401611fec929190613a91565b6040805180830381865afa158015612008573d6000803e3d6000fd5b505050506040513d601f19601f8201168201806040525081019061202c9190613aba565b915091509091565b61203c6125a8565b73ffffffffffffffffffffffffffffffffffffffff1661205a611927565b73ffffffffffffffffffffffffffffffffffffffff16146120b0576040517f08c379a00000000000000000000000000000000000000000000000000000000081526004016120a79061373e565b60405180910390fd5b600073ffffffffffffffffffffffffffffffffffffffff168173ffffffffffffffffffffffffffffffffffffffff161415612120576040517f08c379a000000000000000000000000000000000000000000000000000000000815260040161211790613e0b565b60405180910390fd5b612129816125b0565b50565b600080600460009054906101000a900473ffffffffffffffffffffffffffffffffffffffff1673ffffffffffffffffffffffffffffffffffffffff166393f1a40b6000306040518363ffffffff1660e01b815260040161218d929190613a91565b6040805180830381865afa1580156121a9573d6000803e3d6000fd5b505050506040513d601f19601f820116820180604052508101906121cd9190613aba565b91509150915091565b6121de6125a8565b73ffffffffffffffffffffffffffffffffffffffff166121fc611927565b73ffffffffffffffffffffffffffffffffffffffff1614612252576040517f08c379a00000000000000000000000000000000000000000000000000000000081526004016122499061373e565b60405180910390fd5b600060066000612260611927565b73ffffffffffffffffffffffffffffffffffffffff1673ffffffffffffffffffffffffffffffffffffffff168152602001908152602001600020604051806101000160405290816000820160009054906101000a900473ffffffffffffffffffffffffffffffffffffffff1673ffffffffffffffffffffffffffffffffffffffff1673ffffffffffffffffffffffffffffffffffffffff1681526020016001820160009054906101000a900473ffffffffffffffffffffffffffffffffffffffff1673ffffffffffffffffffffffffffffffffffffffff1673ffffffffffffffffffffffffffffffffffffffff1681526020016002820160009054906101000a900473ffffffffffffffffffffffffffffffffffffffff1673ffffffffffffffffffffffffffffffffffffffff1673ffffffffffffffffffffffffffffffffffffffff1681526020016003820160009054906101000a900473ffffffffffffffffffffffffffffffffffffffff1673ffffffffffffffffffffffffffffffffffffffff1673ffffffffffffffffffffffffffffffffffffffff1681526020016004820160009054906101000a900473ffffffffffffffffffffffffffffffffffffffff1673ffffffffffffffffffffffffffffffffffffffff1673ffffffffffffffffffffffffffffffffffffffff1681526020016005820160009054906101000a900473ffffffffffffffffffffffffffffffffffffffff1673ffffffffffffffffffffffffffffffffffffffff1673ffffffffffffffffffffffffffffffffffffffff1681526020016006820160009054906101000a900473ffffffffffffffffffffffffffffffffffffffff1673ffffffffffffffffffffffffffffffffffffffff1673ffffffffffffffffffffffffffffffffffffffff1681526020016007820160009054906101000a900473ffffffffffffffffffffffffffffffffffffffff1673ffffffffffffffffffffffffffffffffffffffff1673ffffffffffffffffffffffffffffffffffffffff16815250509050600061256382612cc7565b90506000806125728385612e84565b9150915060008183116125855781612587565b825b90506125938186611950565b50505061259f856114c1565b50505050505050565b600033905090565b60008060009054906101000a900473ffffffffffffffffffffffffffffffffffffffff169050816000806101000a81548173ffffffffffffffffffffffffffffffffffffffff021916908373ffffffffffffffffffffffffffffffffffffffff1602179055508173ffffffffffffffffffffffffffffffffffffffff168173ffffffffffffffffffffffffffffffffffffffff167f8be0079c531659141344cd1fd0a4f28419497f9722a3daafe3b4186f6b6457e060405160405180910390a35050565b6000816126828530866118a0565b10156126a357600115156126968585612b42565b1515146126a257600080fd5b5b9392505050565b6000806126b56125a8565b73ffffffffffffffffffffffffffffffffffffffff166126d3611927565b73ffffffffffffffffffffffffffffffffffffffff1614612729576040517f08c379a00000000000000000000000000000000000000000000000000000000081526004016127209061373e565b60405180910390fd5b8460c00151600360006101000a81548173ffffffffffffffffffffffffffffffffffffffff021916908373ffffffffffffffffffffffffffffffffffffffff16021790555060008373ffffffffffffffffffffffffffffffffffffffff166370a08231306040518263ffffffff1660e01b81526004016127a9919061358c565b602060405180830381865afa1580156127c6573d6000803e3d6000fd5b505050506040513d601f19601f820116820180604052508101906127ea91906137fb565b905060006127f88686610693565b90506000600360009054906101000a900473ffffffffffffffffffffffffffffffffffffffff1673ffffffffffffffffffffffffffffffffffffffff1663c45a01556040518163ffffffff1660e01b8152600401602060405180830381865afa158015612869573d6000803e3d6000fd5b505050506040513d601f19601f8201168201806040525081019061288d91906139f6565b73ffffffffffffffffffffffffffffffffffffffff1663e6a4390588886040518363ffffffff1660e01b81526004016128c792919061331e565b602060405180830381865afa1580156128e4573d6000803e3d6000fd5b505050506040513d601f19601f8201168201806040525081019061290891906139f6565b90506000600360009054906101000a900473ffffffffffffffffffffffffffffffffffffffff1673ffffffffffffffffffffffffffffffffffffffff1663d06ca61f8b856040518363ffffffff1660e01b8152600401612969929190613e2b565b600060405180830381865afa158015612986573d6000803e3d6000fd5b505050506040513d6000823e3d601f19601f820116820180604052508101906129af9190613f28565b90506000600360009054906101000a900473ffffffffffffffffffffffffffffffffffffffff1673ffffffffffffffffffffffffffffffffffffffff166338ed173983600081518110612a0557612a0461375e565b5b602002602001015184600181518110612a2157612a2061375e565b5b6020026020010151873061753042612a399190613f71565b6040518663ffffffff1660e01b8152600401612a59959493929190613fc7565b6000604051808303816000875af1158015612a78573d6000803e3d6000fd5b505050506040513d6000823e3d601f19601f82011682018060405250810190612aa19190613f28565b905060008873ffffffffffffffffffffffffffffffffffffffff166370a08231306040518263ffffffff1660e01b8152600401612ade919061358c565b602060405180830381865afa158015612afb573d6000803e3d6000fd5b505050506040513d601f19601f82011682018060405250810190612b1f91906137fb565b905060018682612b2f9190614021565b9750975050505050505094509492505050565b60007fffffffffffffffffffffffffffffffffffffffffffffffffffffffffffffffff8373ffffffffffffffffffffffffffffffffffffffff1663dd62ed3e84306040518363ffffffff1660e01b8152600401612ba092919061331e565b602060405180830381865afa158015612bbd573d6000803e3d6000fd5b505050506040513d601f19601f82011682018060405250810190612be191906137fb565b10612c21576040517f08c379a0000000000000000000000000000000000000000000000000000000008152600401612c18906140c7565b60405180910390fd5b8273ffffffffffffffffffffffffffffffffffffffff1663095ea7b3837fffffffffffffffffffffffffffffffffffffffffffffffffffffffffffffffff6040518363ffffffff1660e01b8152600401612c7c929190613828565b6020604051808303816000875af1158015612c9b573d6000803e3d6000fd5b505050506040513d601f19601f82011682018060405250810190612cbf91906137b9565b905092915050565b6000806000612cd58461212c565b915091506000846080015173ffffffffffffffffffffffffffffffffffffffff166370a08231306040518263ffffffff1660e01b8152600401612d18919061358c565b602060405180830381865afa158015612d35573d6000803e3d6000fd5b505050506040513d601f19601f82011682018060405250810190612d5991906137fb565b9050600460009054906101000a900473ffffffffffffffffffffffffffffffffffffffff1673ffffffffffffffffffffffffffffffffffffffff1663441a3e706000846040518363ffffffff1660e01b8152600401612db9929190613a68565b600060405180830381600087803b158015612dd357600080fd5b505af1158015612de7573d6000803e3d6000fd5b505050506000856080015173ffffffffffffffffffffffffffffffffffffffff166370a08231306040518263ffffffff1660e01b8152600401612e2a919061358c565b602060405180830381865afa158015612e47573d6000803e3d6000fd5b505050506040513d601f19601f82011682018060405250810190612e6b91906137fb565b90508181612e799190614021565b945050505050919050565b600080612e9a83608001518460c0015186612674565b506000612ea685612ef0565b9050600080612ebf8387886080015189602001516126aa565b91509150600080612eda85898a608001518b604001516126aa565b9150915082819650965050505050509250929050565b600080612efc83612f42565b9050600115158115151415612f2057600283612f1891906139b0565b915050612f3d565b6002600184612f2f9190614021565b612f3991906139b0565b9150505b919050565b600080600283612f5291906140e7565b14612f605760009050612f65565b600190505b919050565b6000604051905090565b600080fd5b600080fd5b6000819050919050565b612f9181612f7e565b8114612f9c57600080fd5b50565b600081359050612fae81612f88565b92915050565b600060208284031215612fca57612fc9612f74565b5b6000612fd884828501612f9f565b91505092915050565b60008115159050919050565b612ff681612fe1565b82525050565b60006020820190506130116000830184612fed565b92915050565b600073ffffffffffffffffffffffffffffffffffffffff82169050919050565b600061304282613017565b9050919050565b61305281613037565b811461305d57600080fd5b50565b60008135905061306f81613049565b92915050565b6000806040838503121561308c5761308b612f74565b5b600061309a85828601613060565b92505060206130ab85828601613060565b9150509250929050565b600081519050919050565b600082825260208201905092915050565b6000819050602082019050919050565b6130ea81613037565b82525050565b60006130fc83836130e1565b60208301905092915050565b6000602082019050919050565b6000613120826130b5565b61312a81856130c0565b9350613135836130d1565b8060005b8381101561316657815161314d88826130f0565b975061315883613108565b925050600181019050613139565b5085935050505092915050565b6000602082019050818103600083015261318d8184613115565b905092915050565b6000602082840312156131ab576131aa612f74565b5b60006131b984828501613060565b91505092915050565b6131cb81613037565b82525050565b6000610100820190506131e7600083018b6131c2565b6131f4602083018a6131c2565b61320160408301896131c2565b61320e60608301886131c2565b61321b60808301876131c2565b61322860a08301866131c2565b61323560c08301856131c2565b61324260e08301846131c2565b9998505050505050505050565b600061325a82613037565b9050919050565b61326a8161324f565b811461327557600080fd5b50565b60008135905061328781613261565b92915050565b600080600080608085870312156132a7576132a6612f74565b5b60006132b587828801613278565b94505060206132c687828801612f9f565b93505060406132d787828801613060565b92505060606132e887828801613060565b91505092959194509250565b6132fd81612f7e565b82525050565b600060208201905061331860008301846132f4565b92915050565b600060408201905061333360008301856131c2565b61334060208301846131c2565b9392505050565b6000806040838503121561335e5761335d612f74565b5b600061336c85828601612f9f565b925050602061337d85828601613278565b9150509250929050565b600060408201905061339c6000830185612fed565b6133a960208301846132f4565b9392505050565b600080fd5b6000601f19601f8301169050919050565b7f4e487b7100000000000000000000000000000000000000000000000000000000600052604160045260246000fd5b6133fe826133b5565b810181811067ffffffffffffffff8211171561341d5761341c6133c6565b5b80604052505050565b6000613430612f6a565b905061343c82826133f5565b919050565b60006101008284031215613458576134576133b0565b5b613463610100613426565b9050600061347384828501613060565b600083015250602061348784828501613060565b602083015250604061349b84828501613060565b60408301525060606134af84828501613060565b60608301525060806134c384828501613060565b60808301525060a06134d784828501613060565b60a08301525060c06134eb84828501613060565b60c08301525060e06134ff84828501613060565b60e08301525092915050565b6000610100828403121561352257613521612f74565b5b600061353084828501613441565b91505092915050565b60008060006060848603121561355257613551612f74565b5b600061356086828701613278565b935050602061357186828701613060565b925050604061358286828701613060565b9150509250925092565b60006020820190506135a160008301846131c2565b92915050565b60008061012083850312156135bf576135be612f74565b5b60006135cd85828601612f9f565b92505060206135de85828601613441565b9150509250929050565b60006060820190506135fd60008301866132f4565b61360a60208301856132f4565b61361760408301846132f4565b949350505050565b600060408201905061363460008301856132f4565b61364160208301846132f4565b9392505050565b600081519050919050565b600082825260208201905092915050565b60005b83811015613682578082015181840152602081019050613667565b83811115613691576000848401525b50505050565b60006136a282613648565b6136ac8185613653565b93506136bc818560208601613664565b6136c5816133b5565b840191505092915050565b600060208201905081810360008301526136ea8184613697565b905092915050565b7f4f776e61626c653a2063616c6c6572206973206e6f7420746865206f776e6572600082015250565b6000613728602083613653565b9150613733826136f2565b602082019050919050565b600060208201905081810360008301526137578161371b565b9050919050565b7f4e487b7100000000000000000000000000000000000000000000000000000000600052603260045260246000fd5b61379681612fe1565b81146137a157600080fd5b50565b6000815190506137b38161378d565b92915050565b6000602082840312156137cf576137ce612f74565b5b60006137dd848285016137a4565b91505092915050565b6000815190506137f581612f88565b92915050565b60006020828403121561381157613810612f74565b5b600061381f848285016137e6565b91505092915050565b600060408201905061383d60008301856131c2565b61384a60208301846132f4565b9392505050565b600081519050919050565b600081905092915050565b600061387282613851565b61387c818561385c565b935061388c818560208601613664565b80840191505092915050565b60006138a48284613867565b915081905092915050565b7f416d6f756e74206578636565647320616c6c6f77616e63650000000000000000600082015250565b60006138e5601883613653565b91506138f0826138af565b602082019050919050565b60006020820190508181036000830152613914816138d8565b9050919050565b600060608201905061393060008301866131c2565b61393d60208301856131c2565b61394a60408301846132f4565b949350505050565b7f4e487b7100000000000000000000000000000000000000000000000000000000600052601260045260246000fd5b7f4e487b7100000000000000000000000000000000000000000000000000000000600052601160045260246000fd5b60006139bb82612f7e565b91506139c683612f7e565b9250826139d6576139d5613952565b5b828204905092915050565b6000815190506139f081613049565b92915050565b600060208284031215613a0c57613a0b612f74565b5b6000613a1a848285016139e1565b91505092915050565b6000819050919050565b6000819050919050565b6000613a52613a4d613a4884613a23565b613a2d565b612f7e565b9050919050565b613a6281613a37565b82525050565b6000604082019050613a7d6000830185613a59565b613a8a60208301846132f4565b9392505050565b6000604082019050613aa66000830185613a59565b613ab360208301846131c2565b9392505050565b60008060408385031215613ad157613ad0612f74565b5b6000613adf858286016137e6565b9250506020613af0858286016137e6565b9150509250929050565b6000819050919050565b6000613b1f613b1a613b1584613afa565b613a2d565b612f7e565b9050919050565b613b2f81613b04565b82525050565b600061010082019050613b4b600083018b6131c2565b613b58602083018a6131c2565b613b6560408301896132f4565b613b7260608301886132f4565b613b7f6080830187613b26565b613b8c60a0830186613b26565b613b9960c08301856131c2565b613ba660e08301846132f4565b9998505050505050505050565b600080600060608486031215613bcc57613bcb612f74565b5b6000613bda868287016137e6565b9350506020613beb868287016137e6565b9250506040613bfc868287016137e6565b9150509250925092565b600060e082019050613c1b600083018a6131c2565b613c2860208301896131c2565b613c3560408301886132f4565b613c426060830187613b26565b613c4f6080830186613b26565b613c5c60a08301856131c2565b613c6960c08301846132f4565b98975050505050505050565b7f556e6578706563746564204572726f723a20556e61626c6520746f206170707260008201527f6f766520746f6b656e0000000000000000000000000000000000000000000000602082015250565b6000613cd1602983613653565b9150613cdc82613c75565b604082019050919050565b60006020820190508181036000830152613d0081613cc4565b9050919050565b7f556e6578706563746564206572726f723a20636f756c64206e6f74206170707260008201527f6f766520666f7220617070726f76616c416d6f756e7400000000000000000000602082015250565b6000613d63603683613653565b9150613d6e82613d07565b604082019050919050565b60006020820190508181036000830152613d9281613d56565b9050919050565b7f4f776e61626c653a206e6577206f776e657220697320746865207a65726f206160008201527f6464726573730000000000000000000000000000000000000000000000000000602082015250565b6000613df5602683613653565b9150613e0082613d99565b604082019050919050565b60006020820190508181036000830152613e2481613de8565b9050919050565b6000604082019050613e4060008301856132f4565b8181036020830152613e528184613115565b90509392505050565b600080fd5b600067ffffffffffffffff821115613e7b57613e7a6133c6565b5b602082029050602081019050919050565b600080fd5b6000613ea4613e9f84613e60565b613426565b90508083825260208201905060208402830185811115613ec757613ec6613e8c565b5b835b81811015613ef05780613edc88826137e6565b845260208401935050602081019050613ec9565b5050509392505050565b600082601f830112613f0f57613f0e613e5b565b5b8151613f1f848260208601613e91565b91505092915050565b600060208284031215613f3e57613f3d612f74565b5b600082015167ffffffffffffffff811115613f5c57613f5b612f79565b5b613f6884828501613efa565b91505092915050565b6000613f7c82612f7e565b9150613f8783612f7e565b9250827fffffffffffffffffffffffffffffffffffffffffffffffffffffffffffffffff03821115613fbc57613fbb613981565b5b828201905092915050565b600060a082019050613fdc60008301886132f4565b613fe960208301876132f4565b8181036040830152613ffb8186613115565b905061400a60608301856131c2565b61401760808301846132f4565b9695505050505050565b600061402c82612f7e565b915061403783612f7e565b92508282101561404a57614049613981565b5b828203905092915050565b7f416c726561647920617070726f76656420666f72206d6178696d756d20616d6f60008201527f756e740000000000000000000000000000000000000000000000000000000000602082015250565b60006140b1602383613653565b91506140bc82614055565b604082019050919050565b600060208201905081810360008301526140e0816140a4565b9050919050565b60006140f282612f7e565b91506140fd83612f7e565b92508261410d5761410c613952565b5b82820690509291505056fea2646970667358221220cb31e0cb2b4f62c1e1a519ad56b7c190fd87c31f9af7bcb8d45646047a608e8764736f6c634300080a0033307830303030303030303030303030303030303030303030303030303030303030303030303030303030",
  "linkReferences": {},
  "deployedLinkReferences": {}
}